:100000000C9434000C9451000C9451000C94510049
:100010000C9451000C9451000C9451000C9451001C
:100020000C9451000C9451000C9451000C9451000C
:100030000C9451000C9451000C9451000C945100FC
:100040000C9451000C9451000C942B020C94FD0163
:100050000C9451000C9451000C9451000C945100DC
:100060000C9451000C94510011241FBECFEFD8E026
:10007000DEBFCDBF11E0A0E0B1E0E4ECF9E002C0EA
:1000800005900D92A232B107D9F721E0A2E2B1E0CA
:1000900001C01D92A93DB207E1F70E948B020C94AA
:1000A000E0040C940000CF93DF9300D000D0CDB7D4
:1000B000DEB7E5E7F1E0AE014F5F5F4FDA0180E0C8
:1000C00090E0219130ED320F3A3098F52D93019662
:1000D00084309105B1F7E3E0F0E03196E40FF51FCD
:1000E00030E021E060E082918053829F300D112446
:1000F000822F962FBC01660F771F880F991F880FDC
:10010000991F880F991F860F971F282F692F4E1749
:100110005F0749F730932201353678F48FEF8093EB
:10012000560180E00F900F900F900F90DF91CF91CC
:100130000895FC013197892B81F68FEFF3CF109250
:10014000240180E00895E7E5F1E084E4808385E41C
:10015000818386E5828380E3838391E3948385832F
:100160008683878380878187928713860895CF93BC
:10017000DF934BE050E067E571E085E791E00E9496
:10018000BD04EC01892B41F01092750110922801F9
:1001900080E0DF91CF91089560E270E085E791E023
:1001A0000E94D504AC0155274B50510990E014161C
:1001B000150654F4CB58DE4F2B8528839F5FC92F3B
:1001C000D0E0C417D507B4F3CB58DE4F1882909314
:1001D00028018FEFDECFEF92FF920F931F93CF9303
:1001E000DF938AE2E82E81E0F82E00E010E0F701CC
:1001F000C191BF01D0E0AE0185E791E00E94BD044E
:10020000009789F00F5F1F4FFBE0EF0EF11C0430E9
:10021000110569F780E090E0DF91CF911F910F9178
:10022000FF90EF9008954091280150E04C1B5D0B2A
:1002300020E01416150674F4DC01AB58BE4FFD0126
:10024000EC0FFD1F30813C932F5F822F90E08417CD
:10025000950794F3FC01EB58FE4F10822093280180
:100260008BE0809FF001819FF00D1124E65DFE4F31
:1002700081859285DF91CF911F910F91FF90EF9033
:100280000895909127019923C1F0E7EBF1E0A5E7EC
:10029000B1E02FEF290F30E028543E4F81918D932C
:1002A000E217F307D9F7903228F4E92FF0E0EB5882
:1002B000FE4F1082109227010895E0E0F0E0F7CFA2
:1002C000529A5A981092C5008FE18093C400E0ECD6
:1002D000F0E080818D7F808380818068808386E2EA
:1002E0008093C20088E18093C1000895BC015A9AAE
:1002F000E7E5F1E022E631E09091C00095FFFCCF08
:1003000081918093C6002E173F07B1F740E020E0AF
:1003100030E09091C00095FFFCCFFB01E20FF31F8E
:1003200080818093C6004F5F242F30E0FB01E20FF5
:10033000F31F319780818A3061F75A98089580E0E1
:1003400091E00E94760180E00895CF93DF9300D082
:1003500000D0CDB7DEB79091230129E2929F212DE5
:10036000112422952F7080E3820F89833DEC939FA7
:10037000812D1124869586958695839F312D112494
:100380003695369536954AE0349F80191124805D64
:100390008A8384E6289F90191124905D9B838AE0CC
:1003A0008C8384E091E00E947601CE0101960E9448
:1003B000760180E00F900F900F900F90DF91CF911A
:1003C0000895E7E5F1E0A3E6B1E081918D9381E046
:1003D000E236F807D1F782E480936E0185E58093D9
:1003E0006F0183E58093700189E5809371018AE054
:1003F000809372011092730108951F920F920FB6AD
:100400000F9211248F93EF93FF93E0912901F0E075
:10041000ED59FE4F80818093C600E0912901EF5F86
:10042000E0932901F0E0ED59FE4F808181110BC06E
:10043000109229018091C1008F7D8093C10010929C
:10044000270110922601FF91EF918F910F900FBE1F
:100450000F901F9018951F920F920FB60F921124B4
:100460008F939F93EF93FF93809127019091C60004
:10047000E82FF0E0E954FE4F90839A30B9F08F5F97
:100480008093270180912501882339F08091C10054
:1004900080628093C10010922501FF91EF919F919E
:1004A0008F910F900FBE0F901F9018959FEF909314
:1004B0002601E5CFEAE2F1E082E0808381E48183F6
:1004C00084E5828313822FE931E03287218733E08C
:1004D000338723E5248795E495878687178643E548
:1004E00050E0558B448B368B37E4378B908F818F60
:1004F000128E45EA51E050A3478F35E031A332E533
:1005000032A393A324A395A386A317A28FE990E017
:1005100093A782A708950E945A0284E4809357010A
:1005200085E48093580186E58093590180E38093A8
:100530005A0191E390935B0180935C0180935D018C
:1005400080935E0180935F018093600190936101CD
:10055000109262010E94E10180912401DFEF94E694
:10056000C92E04E6C1E024E0E22E13E036E0F32ECB
:1005700042E0D42E823009F4E1C0833008F0D6C0C6
:10058000882309F438C18130A9F71A9BB7C04F9965
:1005900007C0E0E0F0EF3197F1F74F9B00932201A5
:1005A000809126018823F1F090912701992309F485
:1005B000C4C1E7EBF1E0A5E7B1E02FEF290F30E090
:1005C00028543E4F81918D93E217F307D9F790326B
:1005D00008F493C110922701109226010E94B700DF
:1005E000811199C19091220180912301981710F4F3
:1005F000D0922401891708F07DC110932401D09373
:1006000025012898299A2091950130919601809191
:10061000D7019091D8018217930798F440C01A9B94
:100620002DC080919501909196010196909396012D
:10063000809395012091D7013091D801281739076F
:1006400070F1EFEFFFE23197F1F700C00000809109
:100650009501909196016091D7017091D8010E9407
:10066000A9046C9D602D11246093230180912201C7
:100670006817A9F04D9B4BC04F99D1CFE0E0F0EF48
:100680003197F1F78091950190919601059690939D
:100690009601809395014F9B02C01A99C6CF85B1F0
:1006A0008C7F85B980919501909196016091D701D9
:1006B0007091D8016817790728F4709396016093B8
:1006C0009501CB010E94A9046C9D602D11246093BB
:1006D00023016093220180915601882309F4F8C018
:1006E000E092240180E091E00E9476011092750171
:1006F00010922801C09324011A9949CF80E090EF0D
:100700000197F1F71A9943CF1092220140CF80E070
:1007100090EF0197F1F74D99AFCF8091D70190916C
:10072000D8019093960180939501B9CF833009F455
:1007300066CF8430B9F2823009F01FCFD093250103
:10074000289A29980BC01A9B26C0809195019091F8
:100750009601019790939601809395018FEF9FE208
:100760000197F1F700C000008091950190919601EA
:100770006091D7017091D8010E94A9046C9D602DF1
:10078000112460932301809122016817A9F04C9BEA
:10079000A2C04F99D8CF80E090EF0197F1F78091F8
:1007A00095019091960105979093960180939501FC
:1007B0004F9B02C01A99CDCF85B18C7F85B98091AE
:1007C0009501909196016091D7017091D8010E9496
:1007D000A9046C9D602D1124609323016093220174
:1007E00080915601882309F481C0E092240184E0BD
:1007F00010922501BFCE0E94600114B9FAB8289A60
:100800002998109296011092950109C08091950146
:1008100090919601019690939601809395018FEFA8
:100820009FE20197F1F700C000004C99EFCFE0E0A4
:10083000F0EF3197F1F7809195019091960105962F
:1008400090939601809395014C99E4CF2898299A2A
:100850001092D8011092D70109C08091D7019091D0
:10086000D80101969093D8018093D7018FEF9FE232
:100870000197F1F700C000004D99EFCFE0E0F0EFF5
:100880003197F1F78091D7019091D8010596909317
:10089000D8018093D7014D99E4CF85B18C7F85B97C
:1008A00080919501909196016091D7017091D80146
:1008B0000E94A9046C9D602D112460932201009375
:1008C000230110922601109256011092250178946E
:1008D000C09324015ACEE0E0F0EF3197F1F74C9944
:1008E00058CF109296011092950166CFC0932401C3
:1008F00081E07ECF809124013DCEE92FF0E0EB58DE
:10090000FE4F108210922701109226010E94B7001C
:10091000882309F467CE0E94EB00009789F0FC0160
:100920000995882309F45ECE8BE191E00E9476015F
:10093000109275011092280155CEE0E0F0E0DFCF73
:1009400088E091E00E9476011092750110922801D2
:1009500049CEAA1BBB1B51E107C0AA1FBB1FA6178C
:10096000B70710F0A61BB70B881F991F5A95A9F758
:1009700080959095BC01CD010895FB01DC014150AB
:10098000504088F08D9181341CF08B350CF4805EE2
:10099000619161341CF06B350CF4605E861B611153
:1009A00071F3990B0895881BFCCFFC0161507040D6
:1009B00001900110D8F7809590958E0F9F1F089594
:0409C000F894FFCFD9
:1009C4004F4B0A00504F53004552524F525F4E4F07
:1009D4005F46554E4354494F4E0A004552524F52BA
:0209E4000A0007
:00000001FF
