S00D0000626C696E642E737265630E
S11300000C9434000C9446000C9446000C94460066
S11300100C9446000C9446000C9446000C94460044
S11300200C9446000C9446000C9446000C94460034
S11300300C9446000C9446000C9446000C94460024
S11300400C9446000C9446000C94DE010C9446007B
S11300500C9446000C9446000C9446000C94460004
S11300600C9446000C94460011241FBECFEFD8E038
S1130070DEBFCDBF21E0A0E0B1E001C01D92A33AF4
S1130080B207E1F70E9401020C940D050C940000E4
S1130090E3E3F1E0A1E6B1E02EE331E081918D9359
S11300A02E173F07D9F78FE480936C018BE480937C
S11300B06D018AE080936E0110926F0180E00895D3
S11300C0CF93DF9300D000D0CDB7DEB7EFE3F1E0FC
S11300D0AE014F5F5F4FDA0180E090E0219130ED97
S11300E0320F3A3098F52D93019684309105B1F78B
S11300F0E3E0F0E03196E40FF51F30E021E060E04A
S113010082918053829F300D1124822F962FBC013F
S1130110660F771F880F991F880F991F880F991FE3
S1130120860F971F282F692F4E175F0749F73093C3
S11301300001353678F48FEF8093320180E00F9020
S11301400F900F900F90DF91CF910895FC0131979C
S1130150892B81F68FEFF3CFE3E3F1E0A1E6B1E081
S11301602EE331E081918D932E173F07D9F780E577
S113017080936C018FE480936D0183E580936E011D
S11301809091010129E2929F212D112422952F7033
S113019080E3820F80936F013DEC939F812D1124A6
S11301A0869586958695839F312D112436953695AF
S11301B036954AE0349F80191124805D8093700144
S11301C084E6289F90191124905D909371018AE030
S11301D0809372011092730180E0089510920201DD
S11301E080E00895E3E3F1E084E4808385E481839F
S11301F086E5828380E3838391E394838583868386
S1130200878380878187928713860895CF93DF93AE
S11302104BE050E063E371E08FE391E00E94EA0475
S1130220EC01892B41F010923F011092050180E00E
S1130230DF91CF91089560E270E08FE391E00E9436
S11302400205AC0155274B50510990E014161506D0
S113025054F4C15CDE4F2B8528839F5FC92FD0E007
S1130260C417D507B4F3C15CDE4F1882909305011F
S11302708FEFDECFEF92FF920F931F93CF93DF9315
S113028086E0E82E81E0F82E00E010E0F701C1914D
S1130290BF01D0E0AE018FE391E00E94EA04009731
S11302A089F00F5F1F4FFBE0EF0EF11C04301105C6
S11302B069F780E090E0DF91CF911F910F91FF905B
S11302C0EF9008954091050150E04C1B5D0B20E038
S11302D01416150674F4DC01A15CBE4FFD01EC0F8D
S11302E0FD1F30813C932F5F822F90E08417950788
S11302F094F3FC01E15CFE4F1082209305018BE036
S1130300809FF001819FF00D1124EA5FFE4F8185EB
S11303109285DF91CF911F910F91FF90EF900895F7
S1130320909104019923C1F0E1E8F1E0AFE3B1E079
S11303302FEF290F30E02E573E4F81918D93E21716
S1130340F307D9F7903228F4E92FF0E0E15CFE4F8F
S11303501082109204010895E0E0F0E0F7CF579A7C
S11303605F981092C5008FE18093C400E0ECF0E048
S113037080818D7F808380818068808386E2809302
S1130380C20088E18093C10008955F9A90E020E064
S113039030E08091C00085FFFCCFF901EF59FE4F9A
S11303A080818093C6009F5F292F30E0F901E05AD5
S11303B0FE4F80818A3069F75F9808951F920F92EB
S11303C00FB60F9211248F939F93EF93FF93809115
S11303D004019091C600E82FF0E0EF57FE4F9083A0
S11303E09A3019F49FEF909303018F5F8093040177
S11303F0FF91EF919F918F910F900FBE0F901F90DF
S1130400189582E08093060181E48093070194E5C6
S1130410909308011092090128E430E03093100110
S113042020930F0133E03093110123E5209312014F
S113043085E480931301909314011092150140E612
S113044050E050931B0140931A0130931C0137E490
S113045030931D0180931E0190931F01109220017F
S11304604CEA50E0509326014093250135E0309347
S1130470270132E5309328018093290120932A0132
S113048080932B0190932C0110922D012EEE30E0DD
S1130490309331012093300194E49093330180939D
S11304A0340186E58093350180E38093360191E33E
S11304B090933701809338018093390180933A01F6
S11304C080933B0180933C0190933D0110923E0147
S11304D08091020194E6692E24E6E22ECEE3D1E077
S11304E03FE4F32E4BE4B42E5AE0D52E11E003E0A2
S11304F063E8C62E72E0A72EE5E47E2EF2E59F2E79
S1130500AFE58A2E823009F4EFC0833008F0E3C0EF
S1130510882309F434C18130A9F74A9BB7C04B9BA7
S1130520BFC0809103018823F1F03091040133238B
S113053009F425C2E1E8F1E0AFE3B1E08FEF830F06
S113054090E08E579E4F21912D938E179F07D9F7D8
S1130550303208F4A1C110920401109203010E94E8
S113056006018111A7C190910001809101019817A2
S113057010F4A0920201891708F084C100930201CB
S11305802898299A20915F01309160018091A101FE
S11305909091A20182179307ACF43DC089B18C708D
S11305A009F487C080915F01909160010196909356
S11305B0600180935F012091A1013091A20128176D
S11305C039074CF18FEF9FE20197F1F700C000006B
S11305D080915F01909160016091A1017091A201ED
S11305E00E94C204669D602D1124609301018091D4
S11305F00001681781F04D99D1CFE0E0F0EF319719
S1130600F1F74D99CBCF8091A1019091A2019093E4
S1130610600180935F0185B18C7F85B980915F0112
S1130620909160016091A1017091A201681779070E
S11306302CF47093600160935F01CB010E94C204AB
S1130640669D602D112460930101609300018091E7
S11306503201882309F401C184E080930201E3E3B9
S1130660F1E0A1E6B1E081918D93CE17DF07D9F7D0
S1130670F0926C01B0926D01D0926E0110926F01F4
S11306800E94C501109302014A9949CF80E090EF7E
S11306900197F1F74A9943CF109200014B9941CF4A
S11306A0E0E0F0EF3197F1F74B993BCFE092000196
S11306B038CF80E090EF0197F1F780915F0190913E
S11306C0600105969093600180935F0129B12C70BD
S11306D009F06CCFA0CF833009F452CF843009F4F1
S11306E0BECF823009F011CF289A299880915F01FA
S11306F09091600197FD35C00FC089B18C7009F4E9
S1130700AFC080915F019091600101979093600167
S113071080935F0197FD25C0EFEFFFE23197F1F77A
S113072000C0000080915F01909160016091A1017F
S11307307091A2010E94C204669D602D11246093F1
S1130740010180910001681761F04C99D6CF80E0D7
S113075090EF0197F1F74C99D0CF1092600110926D
S11307605F0185B18C7F85B980915F0190916001B3
S113077097FD8BC06091A1017091A2015FCF0E948F
S1130780AF0104B9CAB88BB18C638BB9289A299884
S11307901092600110925F0109C080915F019091F5
S11307A0600101969093600180935F018FEF9FE257
S11307B00197F1F700C000004C99EFCFE0E0F0EFB3
S11307C03197F1F780915F019091600105969093C4
S11307D0600180935F014C99E4CF2898299A109284
S11307E0A2011092A10109C08091A1019091A201DE
S11307F001969093A2018093A1018FEF9FE201974C
S1130800F1F700C000004D99EFCFE0E0F0EF319731
S1130810F1F78091A1019091A20105969093A20114
S11308208093A1014D99E4CF85B18C7F85B98091E6
S11308305F01909160016091A1017091A2010E94F9
S1130840C204669D602D112460930001E0920101B1
S113085010920301109232017894109302015DCE3C
S1130860E0E0F0EF3197F1F780915F019091600142
S113087005979093600180935F0129B12C7009F072
S113088044CF6FCF809102013DCE1092600110924F
S11308905F0180E090E06ECFE32FF0E0E15CFE4F7B
S11308A0108210920401109203010E940601882311
S11308B009F459CE0E943A01009721F1FC010995EF
S11308C0882309F450CEE3E3F1E0A1E6B1E081919D
S11308D08D9381E0EE33F807D1F770926C0190921A
S11308E06D0190926E01F0926F0190927001D0921E
S11308F07101109272010E94C50110923F01109281
S1130900050131CEE3E3F1E0A1E6B1E081918D93FD
S113091081E0EE33F807D1F770926C0190926D018B
S113092090926E01F0926F01909270018092710129
S11309308EE480937201F09273018092740196E4C4
S11309409093750195E5909376018093770193E4F4
S11309509093780194E59093790199E490937A01C6
S1130960F0927B0180937C01D0927D0110927E01F4
S11309700E94C50110923F0110920501F4CDE0E000
S1130980F0E08CCF97FB072E16F4009407D077FD88
S113099009D00E94D60407FC05D03EF490958195B9
S11309A09F4F0895709561957F4F0895AA1BBB1BB7
S11309B051E107C0AA1FBB1FA617B70710F0A61B5B
S11309C0B70B881F991F5A95A9F780959095BC017C
S11309D0CD010895FB01DC014150504088F08D9118
S11309E081341CF08B350CF4805E619161341CF011
S11309F06B350CF4605E861B611171F3990B0895DD
S1130A00881BFCCFFC016150704001900110D8F7A5
S1110A10809590958E0F9F1F0895F894FFCF48
S9030000FC
