S00D0000626C696E642E737265630E
S11300000C9434000C9446000C9446000C94460066
S11300100C9446000C9446000C9446000C94460044
S11300200C9446000C9446000C9446000C94460034
S11300300C9446000C9446000C9448000C94460022
S11300400C9446000C9446000C9446000C94460014
S11300500C9446000C9446000C9446000C94460004
S11300600C9446000C94460011241FBECFEFD8E038
S1130070DEBFCDBF21E0A0E0B1E001C01D92AF30F2
S1130080B207E1F70E947D000C94BB000C940000C1
S11300901F920F920FB60F9211242F933F938F93B9
S11300A09F9389B193B130910501887F9770892B13
S11300B08095282F2327909104019223892F8095DE
S11300C08093040190910301982792239093030154
S11300D082238923932F9827909305012091060169
S11300E08923822B809306019F918F913F912F91B9
S11300F00F900FBE0F901F90189583E084B986E08F
S11301008AB98CEF85B988EF8BB984B5826084BDD8
S113011087B58FEF87BD80916E00826080936E00FB
S1130120789485B5856085BD1092020180E045E034
S113013031E026E093E0813071F050F0823089F0B4
S11301408330C9F78091060183FF12C01092060123
S113015045B9309302018091060186FF09C01092CF
S1130160060125B9909302018091060183FDEECF2B
S10D017080910201E0CFF894FFCF64
S9030000FC
