:100000000C9434000C9451000C9451000C94510049
:100010000C9451000C9451000C9451000C9451001C
:100020000C9451000C9451000C9451000C9451000C
:100030000C9451000C9451000C9451000C945100FC
:100040000C9451000C9451000C942B020C94FD0163
:100050000C9451000C9451000C9451000C945100DC
:100060000C9451000C94510011241FBECFEFD8E026
:10007000DEBFCDBF11E0A0E0B1E0EEE9FBE002C0E1
:1000800005900D92A232B107D9F721E0A2E2B1E0CA
:1000900001C01D92AD3DB207E1F70E948B020C94A6
:1000A000CD050C940000CF93DF9300D000D0CDB7E6
:1000B000DEB7E5E7F1E0AE014F5F5F4FDA0180E0C8
:1000C00090E0219130ED320F3A3098F52D93019662
:1000D00084309105B1F7E3E0F0E03196E40FF51FCD
:1000E00030E021E060E082918053829F300D112446
:1000F000822F962FBC01660F771F880F991F880FDC
:10010000991F880F991F860F971F282F692F4E1749
:100110005F0749F730932201353678F48FEF8093EB
:10012000560180E00F900F900F900F90DF91CF91CC
:100130000895FC013197892B81F68FEFF3CF109250
:10014000240180E00895E7E5F1E084E4808385E41C
:10015000818386E5828380E3838391E3948385832F
:100160008683878380878187928713860895CF93BC
:10017000DF934BE050E067E571E085E791E00E9496
:10018000AA05EC01892B41F010927501109228010B
:1001900080E0DF91CF91089560E270E085E791E023
:1001A0000E94C205AC0155274B50510990E014162E
:1001B000150654F4CB58DE4F2B8528839F5FC92F3B
:1001C000D0E0C417D507B4F3CB58DE4F1882909314
:1001D00028018FEFDECFEF92FF920F931F93CF9303
:1001E000DF938AE2E82E81E0F82E00E010E0F701CC
:1001F000C191BF01D0E0AE0185E791E00E94AA0560
:10020000009789F00F5F1F4FFBE0EF0EF11C0430E9
:10021000110569F780E090E0DF91CF911F910F9178
:10022000FF90EF9008954091280150E04C1B5D0B2A
:1002300020E01416150674F4DC01AB58BE4FFD0126
:10024000EC0FFD1F30813C932F5F822F90E08417CD
:10025000950794F3FC01EB58FE4F10822093280180
:100260008BE0809FF001819FF00D1124E65DFE4F31
:1002700081859285DF91CF911F910F91FF90EF9033
:100280000895909127019923C1F0E9EBF1E0A5E7EA
:10029000B1E02FEF290F30E026543E4F81918D932E
:1002A000E217F307D9F7903228F4E92FF0E0EB5882
:1002B000FE4F1082109227010895E0E0F0E0F7CFA2
:1002C000529A5A981092C5008FE18093C400E0ECD6
:1002D000F0E080818D7F808380818068808386E2EA
:1002E0008093C20088E18093C1000895BC015A9AAE
:1002F000E7E5F1E022E631E09091C00095FFFCCF08
:1003000081918093C6002E173F07B1F740E020E0AF
:1003100030E09091C00095FFFCCFFB01E20FF31F8E
:1003200080818093C6004F5F242F30E0FB01E20FF5
:10033000F31F319780818A3061F75A98089580E0E1
:1003400091E00E94760180E00895CF93DF9300D082
:1003500000D0CDB7DEB79091230129E2929F212DE5
:10036000112422952F7080E3820F89833DEC939FA7
:10037000812D1124869586958695839F312D112494
:100380003695369536954AE0349F80191124805D64
:100390008A8384E6289F90191124905D9B838AE0CC
:1003A0008C8384E091E00E947601CE0101960E9448
:1003B000760180E00F900F900F900F90DF91CF911A
:1003C0000895E7E5F1E0A3E6B1E081918D9381E046
:1003D000E236F807D1F782E480936E0185E58093D9
:1003E0006F0183E58093700189E5809371018AE054
:1003F000809372011092730108951F920F920FB6AD
:100400000F9211248F93EF93FF93E0912901F0E075
:10041000ED59FE4F80818093C600E0912901EF5F86
:10042000E0932901F0E0ED59FE4F808181110BC06E
:10043000109229018091C1008F7D8093C10010929C
:10044000270110922601FF91EF918F910F900FBE1F
:100450000F901F9018951F920F920FB60F921124B4
:100460008F939F93EF93FF93809127019091C60004
:10047000E82FF0E0E754FE4F90839A30B9F08F5F99
:100480008093270180912501882339F08091C10054
:1004900080628093C10010922501FF91EF919F919E
:1004A0008F910F900FBE0F901F9018959FEF909314
:1004B0002601E5CFEAE2F1E082E0808381E48183F6
:1004C00084E5828313822FE931E03287218733E08C
:1004D000338723E5248795E495878687178643E548
:1004E00050E0558B448B368B37E4378B908F818F60
:1004F000128E45EA51E050A3478F35E031A332E533
:1005000032A393A324A395A386A317A28FE990E017
:1005100093A782A708950E945A0284E4809357010A
:1005200085E48093580186E58093590180E38093A8
:100530005A0191E390935B0180935C0180935D018C
:1005400080935E0180935F018093600190936101CD
:10055000109262010E94E1011092240180E01FEFDD
:10056000C4E694E6F92ED1E024E0B22E03E036E0B2
:10057000C32E4CEFD42E58EFE52E62E0A62E82302B
:1005800009F429C1833008F01EC1882309F4A4C1ED
:100590008130A9F71A9BF7C04F9907C080E090EF10
:1005A0000197F1F74F9BF092220180912601882359
:1005B000F1F090912701992309F49EC2E9EBF1E053
:1005C000A5E7B1E02FEF290F30E026543E4F81918F
:1005D0008D932E173F07D9F7903208F46DC2109211
:1005E0002701109226010E94B700811173C29091D9
:1005F000220180912301981710F4A09224018917F9
:1006000008F057C200932401109325012898299AD5
:1006100040919501509196016091970170919801D8
:100620008091D9019091DA01A091DB01B091DC01B8
:1006300084179507A607B70720F563C01A9B46C025
:100640008091950190919601A0919701B0919801A8
:100650000196A11DB11D8093950190939601A093E1
:100660009701B09398014091D9015091DA016091BE
:10067000DB017091DC01481759076A077B0708F412
:1006800040C0EFEFFFE23197F1F700C0000060914A
:10069000950170919601072E000C880B990B209103
:1006A000D9013091DA014091DB015091DC010E94C7
:1006B00088052C9F202D1124209323018091220155
:1006C0002817F9F04D9B68C04F99B8CFE0E0F0EFE4
:1006D0003197F1F78091950190919601A091970142
:1006E000B09198010596A11DB11D8093950190933D
:1006F0009601A0939701B09398014F9B02C01A995D
:10070000A7CF85B18C7F85B9809195019091960195
:10071000A0919701B09198012091D9013091DA010F
:100720004091DB015091DC01281739074A075B072C
:1007300050F4209395013093960140939701509384
:100740009801DA01C901BC01990F880B990B0E942D
:1007500088052C9F202D1124209323012093220112
:1007600080915601882309F48EC1B092240180E063
:1007700091E00E9476011092750110922801D093A9
:1007800024011A9909CFE0E0F0EF3197F1F71A99B7
:1007900003CF1092220100CF80E090EF0197F1F794
:1007A0004D9992CF8091D9019091DA01A091DB010E
:1007B000B091DC018093950190939601A0939701ED
:1007C000B09398019ECF833009F41ECF843079F224
:1007D000823009F0D7CE10932501289A299815C0A8
:1007E0001A9B38C08091950190919601A091970134
:1007F000B09198010197A109B10980939501909357
:100800009601A0939701B09398018FEF9FE2019713
:10081000F1F700C000006091950170919601072EDC
:10082000000C880B990B2091D9013091DA0140918D
:10083000DB015091DC010E9488052C9F202D1124A2
:1008400020932301809122012817F9F04C9B1EC1AF
:100850004F99C6CF80E090EF0197F1F78091950115
:1008600090919601A0919701B09198010597A109E7
:10087000B1098093950190939601A0939701B0934D
:1008800098014F9B02C01A99B5CF85B18C7F85B96D
:100890006091950170919601072E000C880B990BC1
:1008A0002091D9013091DA014091DB015091DC01B6
:1008B0000E9488052C9F202D112420932301209332
:1008C000220180915601882309F4EFC0B0922401DF
:1008D00084E01092250153CE0E94600104B9CAB889
:1008E000D5B8EBB8289A29981092950110929601E4
:1008F000109297011092980113C0809195019091E8
:100900009601A0919701B09198010196A11DB11D8A
:100910008093950190939601A0939701B0939801CD
:100920008FEF9FE20197F1F700C000004C99E5CFEF
:10093000E0E0F0EF3197F1F7809195019091960109
:10094000A0919701B09198010596A11DB11D8093CA
:10095000950190939601A0939701B09398014C99BB
:10096000D4CF2898299A1092D9011092DA011092C6
:10097000DB011092DC018FEF9FE20197F1F700C0DD
:1009800000008091D9019091DA01A091DB01B09132
:10099000DC010196A11DB11D8093D9019093DA016C
:1009A000A093DB01B093DC01409195015091960139
:1009B0006091970170919801481759076A077B0762
:1009C000D0F61092D9011092DA011092DB01109248
:1009D000DC0113C08091D9019091DA01A091DB0173
:1009E000B091DC010196A11DB11D8093D9019093B6
:1009F000DA01A093DB01B093DC01EFEFFFE2319766
:100A0000F1F700C000004D99E5CF80E090EF01972D
:100A1000F1F78091D9019091DA01A091DB01B091B9
:100A2000DC010596A11DB11D8093D9019093DA01D7
:100A3000A093DB01B093DC014D99D4CF85B18C7FBD
:100A400085B98091950190919601C89FB001C99F89
:100A5000700D1124072E000C880B990B2091D901E1
:100A60003091DA014091DB015091DC010E94880550
:100A700020932201F0922301109226011092560138
:100A8000109225017894D093240184CDE0E0F0EF1A
:100A90003197F1F74C99DCCE1092950110929601A6
:100AA0001092970110929801F0CED093240181E02A
:100AB00010CF8091240163CDE92FF0E0EB58FE4F79
:100AC000108210922701109226010E94B7008823FD
:100AD00009F48DCD0E94EB00009789F0FC01099587
:100AE000882309F484CD8BE191E00E947601109275
:100AF0007501109228017BCDE0E0F0E0DFCF88E0C7
:100B000091E00E94760110927501109228016FCD3C
:100B1000A1E21A2EAA1BBB1BFD010DC0AA1FBB1F01
:100B2000EE1FFF1FA217B307E407F50720F0A21B73
:100B3000B30BE40BF50B661F771F881F991F1A94E0
:100B400069F760957095809590959B01AC01BD010A
:100B5000CF010895FB01DC014150504088F08D9198
:100B600081341CF08B350CF4805E619161341CF093
:100B70006B350CF4605E861B611171F3990B08955F
:100B8000881BFCCFFC016150704001900110D8F728
:0E0B9000809590958E0F9F1F0895F894FFCFCB
:100B9E004F4B0A00504F53004552524F525F4E4F2B
:100BAE005F46554E4354494F4E0A004552524F52DE
:020BBE000A002B
:00000001FF
